:100000000C942A000C9447000C9447000C94470071
:100010000C9447000C9447000C94BF130C94651388
:100020000C9492130C9438130C9447000C944700D2
:100030000C9447000C9447000C9447000C94470024
:100040000C9447000C9447000C9447000C94470014
:100050000C94470011241FBECFE5D8E0DEBFCDBF12
:1000600011E0A0E6B0E0EEE9F7E402C005900D92E1
:10007000AC35B107D9F711E0ACE5B1E001C01D9294
:10008000A436B107E1F70E9435150C94CD230C94EA
:100090000000EF92FF920F931F937B018C0120E0F1
:1000A00030E040E05FE40E94490388238CF0C801FF
:1000B000B70120E030E040E05FE40E94C1010E940F
:1000C000A9039B01AC01205030404040504806C07D
:1000D000C801B7010E94A9039B01AC01B901CA0183
:1000E0001F910F91FF90EF900895A0E0B0E0EBE733
:1000F000F0E00C949623DC012B01FA019C919230E4
:1001000008F439C1EB018881823008F433C194309E
:1001100069F4843009F02FC111969C91119789815F
:10012000981709F428C1A4E5B1E025C1843009F489
:1001300021C18230A9F4923009F01DC19A01AD01AC
:1001400088E0EA010990AE01E90109929E0181501F
:10015000C1F7E201898111969C918923818308C1AD
:10016000923009F407C112962D903C901397EB0141
:100170008A819B811496AD90BD90CD90DC901797AD
:10018000EC80FD800E811F819101281B390BB90184
:1001900037FF04C066277727621B730B6032710537
:1001A0000CF061C0121613066CF537014801062EDB
:1001B00004C096948794779467940A94D2F721E0C8
:1001C00030E040E050E004C0220F331F441F551FB1
:1001D0006A95D2F721503040404050402E213F21B7
:1001E00040235123211531054105510521F021E01E
:1001F00030E040E050E079018A01E628F72808293C
:1002000019293CC0232BD1F1260E371E350146019A
:10021000062E04C096948794779467940A94D2F734
:1002200021E030E040E050E004C0220F331F441FC3
:10023000551F6A95D2F721503040404050402A2146
:100240003B214C215D21211531054105510521F04E
:1002500021E030E040E050E059016A01A628B728CB
:10026000C828D9280BC0821593052CF01C01AA249C
:10027000BB24650103C0EE24FF24870111969C91E5
:10028000D20111968C91981709F445C0992339F041
:10029000A80197012A193B094C095D0906C0A6016E
:1002A00095012E193F09400B510B57FD08C01182D3
:1002B0003382228224833583468357831DC081E0A5
:1002C00081833382228288279927DC01821B930B4A
:1002D000A40BB50B84839583A683B7830DC0220F2F
:1002E000331F441F551F24833583468357838281E0
:1002F000938101979383828324813581468157813D
:10030000DA01C9010197A109B1098F5F9F4FAF4F72
:10031000BF4328F30BC0918333822282EA0CFB1C7B
:100320000C1D1D1DE482F5820683178383E0808304
:10033000248135814681578157FF1AC0C901AA27F8
:1003400097FDA095BA2F81709070A070B0705695EF
:10035000479537952795822B932BA42BB52B848318
:100360009583A683B7838281938101969383828349
:10037000DF0101C0D201CD01CDB7DEB7E2E10C94BF
:10038000B223A0E2B0E0E7ECF1E00C94A223698391
:100390007A838B839C832D833E834F835887E9E048
:1003A000EE2EF12CEC0EFD1ECE010196B7010E943F
:1003B000D2048E010F5E1F4FCE010596B8010E9438
:1003C000D2048A8991E089278A8BC701B801AE01DE
:1003D000475E5F4F0E9475000E94FD03A096E6E015
:1003E0000C94BE23A0E2B0E0E8EFF1E00C94A2236D
:1003F00069837A838B839C832D833E834F835887C5
:10040000F9E0EF2EF12CEC0EFD1ECE010196B701A6
:100410000E94D2048E010F5E1F4FCE010596B801D7
:100420000E94D204C701B801AE01475E5F4F0E942F
:1004300075000E94FD03A096E6E00C94BE23A0E2A6
:10044000B0E0E5E2F2E00C94962369837A838B8333
:100450009C832D833E834F835887CE010196BE0136
:10046000675F7F4F0E94D204CE010596BE016F5E8A
:100470007F4F0E94D2049985923088F0898982301A
:10048000C8F0943019F4823051F404C0843029F457
:10049000923081F484E591E0C6C0923049F420E0C6
:1004A0009A858A89981321E02A87CE010996BBC0D4
:1004B000823049F420E09A858A89981321E02A8BBA
:1004C000CE014196B0C02D843E844F8458886D88FB
:1004D0007E888F88988CEE24FF248701AA24BB2471
:1004E000650140E050E060E070E0E0E0F0E0C10174
:1004F00081709070892BE9F0E60CF71C081D191D1E
:100500009A01AB012A0D3B1D4C1D5D1D80E090E062
:10051000A0E0B0E0E614F7040805190520F481E036
:1005200090E0A0E0B0E0BA01A901480F591F6A1F8E
:100530007B1FAA0CBB1CCC1CDD1C97FE08C081E0F5
:1005400090E0A0E0B0E0A82AB92ACA2ADB2A3196B6
:10055000E032F10549F0660C771C881C991C569412
:10056000479437942794C3CFFA85EA892B893C892D
:100570008B859C85280F391F2E5F3F4F17C0CA01FE
:1005800081709070892B61F016950795F794E79428
:1005900080E090E0A0E0B0E8E82AF92A0A2B1B2BC3
:1005A00076956795579547952F5F3F4F77FDE7CF36
:1005B0000CC0440F551F661F771F17FD4160EE0CDE
:1005C000FF1C001F111F21503040403090E05907A0
:1005D00090E0690790E4790760F32B8F3C8FDB0193
:1005E000CA018F779070A070B07080349105A1051A
:1005F000B10561F447FD0AC0E114F10401051105DC
:1006000029F0405C5F4F6F4F7F4F40781A8EFE1786
:1006100011F081E08A8F4D8F5E8F6F8F78A383E01A
:10062000898FCE0149960E94FD03A096E2E10C94C9
:10063000B223A8E1B0E0EFE1F3E00C94A2236983D8
:100640007A838B839C832D833E834F83588789E0F5
:10065000E82EF12CEC0EFD1ECE010196B7010E9492
:10066000D2048E010F5E1F4FCE010596B8010E9485
:10067000D2048985823040F08989823028F0C70110
:10068000B8010E944A0501C08FEF6896E6E00C941D
:10069000BE23A8E1B0E0EFE4F3E00C94A223698369
:1006A0007A838B839C832D833E834F83588789E095
:1006B000E82EF12CEC0EFD1ECE010196B7010E9432
:1006C000D2048E010F5E1F4FCE010596B8010E9425
:1006D000D2048985823040F08989823028F0C701B0
:1006E000B8010E944A0501C08FEF6896E6E00C94BD
:1006F000BE23A8E1B0E0EFE7F3E00C94A223698306
:100700007A838B839C832D833E834F83588789E034
:10071000E82EF12CEC0EFD1ECE010196B7010E94D1
:10072000D2048E010F5E1F4FCE010596B8010E94C4
:10073000D2048985823040F08989823028F0C7014F
:10074000B8010E944A0501C081E06896E6E00C9479
:10075000BE23ACE0B0E0EFEAF3E00C94A62369839B
:100760007A838B839C83CE010196BE016B5F7F4FA2
:100770000E94D2048D81823061F1823050F1843048
:1007800021F48E81882351F12EC02F81388537FDC9
:1007900020C06E812F3131051CF06623F9F023C093
:1007A0008EE190E0821B930B29853A854B855C8511
:1007B00004C056954795379527958A95D2F76623B5
:1007C000B1F050954095309521953F4F4F4F5F4F79
:1007D0000EC020E030E040E050E009C02FEF3FEFD6
:1007E0004FEF5FE704C020E030E040E050E8B9019F
:1007F000CA012C96E2E00C94C223DF92EF92FF92A2
:100800000F931F93FC01E480F58006811781D1804E
:100810008081823048F480E090E0A0E1B0E0E82AF6
:10082000F92A0A2B1B2BA5C0843009F49FC0823003
:1008300021F4EE24FF24870105C0E114F104010531
:10084000110519F4E0E0F0E096C0628173819FEF3A
:10085000623879070CF05BC022E83FEF261B370BAC
:100860002A3131052CF020E030E040E050E02AC091
:10087000B801A701022E04C0769567955795479554
:100880000A94D2F781E090E0A0E0B0E004C0880FC5
:10089000991FAA1FBB1F2A95D2F70197A109B10979
:1008A0008E219F21A023B1230097A105B10521F03E
:1008B00081E090E0A0E0B0E09A01AB01282B392B59
:1008C0004A2B5B2BDA01C9018F779070A070B07052
:1008D00080349105A105B10539F427FF09C0205CDA
:1008E0003F4F4F4F5F4F04C0215C3F4F4F4F5F4F13
:1008F000E0E0F0E02030A0E03A07A0E04A07A0E402
:100900005A0710F0E1E0F0E079018A0127C0603871
:10091000710564F5FB01E158FF4FD801C7018F77DE
:100920009070A070B07080349105A105B10539F4C4
:10093000E7FE0DC080E490E0A0E0B0E004C08FE3EB
:1009400090E0A0E0B0E0E80EF91E0A1F1B1F17FFA1
:1009500005C016950795F794E794319687E01695AC
:100960000795F794E7948A95D1F705C0EE24FF2404
:100970008701EFEFF0E06E2F679566276795902F60
:100980009F77D794DD24D7948E2F8695492F462BB9
:10099000582F5D29B701CA011F910F91FF90EF9069
:1009A000DF900895FC01DB01408151812281622F9B
:1009B0006F7770E0221F2227221F9381892F880FD3
:1009C000822B282F30E0991F9927991F11969C930D
:1009D000119721153105A9F54115510561057105DD
:1009E00011F482E037C082E89FEF13969C938E93B8
:1009F00012979A01AB0167E0220F331F441F551F66
:100A00006A95D1F783E08C930DC0220F331F441FEA
:100A1000551F12968D919C911397019713969C9355
:100A20008E931297203080E0380780E0480780E4FA
:100A3000580758F314962D933D934D935C93179755
:100A400008952F3F310579F4411551056105710570
:100A500019F484E08C93089564FF03C081E08C93C3
:100A600012C01C9210C02F57304013963C932E9307
:100A7000129783E08C9387E0440F551F661F771F02
:100A80008A95D1F7706414964D935D936D937C9322
:100A9000179708951F93DC01FB019C91923008F495
:100AA00047C08081823008F443C0943051F41196DD
:100AB0001C91843099F58181682F70E0611B710968
:100AC0003FC0843021F0923031F48230B9F181811D
:100AD000882389F12DC011961C9111978230F1F075
:100AE00081811817D9F412962D913C911397828128
:100AF00093818217930794F028173907BCF0149656
:100B00008D919D910D90BC91A02D248135814681C0
:100B10005781281739074A075B0718F4112341F05A
:100B20000AC082179307A407B50740F4112319F0F0
:100B300061E070E005C06FEF7FEF02C060E070E041
:100B4000CB011F910895DF93CF9300D000D00F9277
:100B5000CDB7DEB789836A834B838981282F30E044
:100B60003D832C838C819D818234910509F444C09E
:100B70002C813D812334310534F48C819D81813475
:100B8000910571F0BCC02C813D812334310509F4FD
:100B90005FC08C819D818434910509F485C0AFC00C
:100BA0008B818130A1F4AAE3B0E0EAE3F0E0808138
:100BB000482F8A81282F30E081E090E0022E02C089
:100BC000880F991F0A94E2F7842B8C9398C0AAE3AC
:100BD000B0E0EAE3F0E08081482F8A81282F30E0FE
:100BE00081E090E0022E02C0880F991F0A94E2F77C
:100BF000809584238C9383C08B818130A1F4A7E3FB
:100C0000B0E0E7E3F0E08081482F8A81282F30E0D0
:100C100081E090E0022E02C0880F991F0A94E2F74B
:100C2000842B8C936CC0A7E3B0E0E7E3F0E0808115
:100C3000482F8A81282F30E081E090E0022E02C008
:100C4000880F991F0A94E2F7809584238C9357C0EC
:100C50008B818130A1F4A4E3B0E0E4E3F0E0808193
:100C6000482F8A81282F30E081E090E0022E02C0D8
:100C7000880F991F0A94E2F7842B8C9340C0A4E359
:100C8000B0E0E4E3F0E08081482F8A81282F30E053
:100C900081E090E0022E02C0880F991F0A94E2F7CB
:100CA000809584238C932BC08B818130A1F4A1E3A8
:100CB000B0E0E1E3F0E08081482F8A81282F30E026
:100CC00081E090E0022E02C0880F991F0A94E2F79B
:100CD000842B8C9314C0A1E3B0E0E1E3F0E08081C9
:100CE000482F8A81282F30E081E090E0022E02C058
:100CF000880F991F0A94E2F7809584238C930F90B4
:100D00000F900F900F900F90CF91DF910895DF9388
:100D1000CF9300D000D00F92CDB7DEB789836A831E
:100D20004B838981282F30E03D832C838C819D81EA
:100D30008234910509F444C02C813D81233431056E
:100D400034F48C819D818134910571F0BCC02C817B
:100D50003D812334310509F45FC08C819D81843449
:100D6000910509F485C0AFC08B818130A1F4ABE35C
:100D7000B0E0EBE3F0E08081482F8A81282F30E05B
:100D800081E090E0022E02C0880F991F0A94E2F7DA
:100D9000842B8C9398C0ABE3B0E0EBE3F0E0808170
:100DA000482F8A81282F30E081E090E0022E02C097
:100DB000880F991F0A94E2F7809584238C9383C04F
:100DC0008B818130A1F4A8E3B0E0E8E3F0E080811A
:100DD000482F8A81282F30E081E090E0022E02C067
:100DE000880F991F0A94E2F7842B8C936CC0A8E3B8
:100DF000B0E0E8E3F0E08081482F8A81282F30E0DE
:100E000081E090E0022E02C0880F991F0A94E2F759
:100E1000809584238C9357C08B818130A1F4A5E306
:100E2000B0E0E5E3F0E08081482F8A81282F30E0B0
:100E300081E090E0022E02C0880F991F0A94E2F729
:100E4000842B8C9340C0A5E3B0E0E5E3F0E0808123
:100E5000482F8A81282F30E081E090E0022E02C0E6
:100E6000880F991F0A94E2F7809584238C932BC0F6
:100E70008B818130A1F4A2E3B0E0E2E3F0E0808175
:100E8000482F8A81282F30E081E090E0022E02C0B6
:100E9000880F991F0A94E2F7842B8C9314C0A2E365
:100EA000B0E0E2E3F0E08081482F8A81282F30E033
:100EB00081E090E0022E02C0880F991F0A94E2F7A9
:100EC000809584238C930F900F900F900F900F902C
:100ED000CF91DF910895DF93CF9300D000D00F9290
:100EE000CDB7DEB78A836B8319828A81282F30E0E1
:100EF0003D832C834C815D8142345105B1F18C815D
:100F00009D818334910534F42C813D812134310558
:100F100071F084C04C815D814334510509F443C0B4
:100F20008C819D818434910509F45BC077C0E9E32D
:100F3000F0E08081482F50E08B81282F30E081E065
:100F400090E002C0880F991F2A95E2F79A012823A2
:100F500039238B81882F90E0A90102C055954795D0
:100F60008A95E2F7CA01898359C0E6E3F0E08081FF
:100F7000482F50E08B81282F30E081E090E002C0C4
:100F8000880F991F2A95E2F79A01282339238B812C
:100F9000882F90E0A90102C0559547958A95E2F700
:100FA000CA0189833BC0E3E3F0E08081482F50E031
:100FB0008B81282F30E081E090E002C0880F991FDC
:100FC0002A95E2F79A01282339238B81882F90E014
:100FD000A90102C0559547958A95E2F7CA01898310
:100FE0001DC0E0E3F0E08081482F50E08B81282F86
:100FF00030E081E090E002C0880F991F2A95E2F767
:101000009A01282339238B81882F90E0A90102C0FF
:10101000559547958A95E2F7CA01898389810F9092
:101020000F900F900F900F90CF91DF910895DF9365
:10103000CF9300D000D0CDB7DEB789836A83898192
:10104000282F30E03C832B838B819C818234910557
:1010500051F12B813C812334310534F48B819C8107
:101060008134910561F05AC02B813C8123343105D4
:1010700071F18B819C8184349105E9F14FC0ABE320
:10108000B0E0EBE3F0E08081482F8A81282F30E048
:1010900081E090E0022E02C0880F991F0A94E2F7C7
:1010A00084278C933BC0A8E3B0E0E8E3F0E08081C4
:1010B000482F8A81282F30E081E090E0022E02C084
:1010C000880F991F0A94E2F784278C9327C0A5E321
:1010D000B0E0E5E3F0E08081482F8A81282F30E0FE
:1010E00081E090E0022E02C0880F991F0A94E2F777
:1010F00084278C9313C0A2E3B0E0E2E3F0E08081A8
:10110000482F8A81282F30E081E090E0022E02C033
:10111000880F991F0A94E2F784278C930F900F9001
:101120000F900F90CF91DF910895DF93CF9300D070
:1011300000D0CDB7DEB789836A838981282F30E05C
:101140003C832B838B819C8182349105D9F02B8148
:101150003C812334310534F48B819C8181349105A9
:1011600061F01EC02B813C812334310581F08B81DD
:101170009C818434910581F013C0EBE3F0E08A8117
:1011800080830EC0E8E3F0E08A81808309C0E5E354
:10119000F0E08A81808304C0E2E3F0E08A8180830A
:1011A0000F900F900F900F90CF91DF910895DF93E4
:1011B000CF9300D000D0CDB7DEB789836A83898111
:1011C000282F30E03C832B838B819C8182349105D6
:1011D00009F12B813C812334310534F48B819C81CE
:1011E0008134910561F036C02B813C812334310577
:1011F000E1F08B819C818434910511F12BC0ABE32C
:10120000B0E0EBE3F0E08081982F8A81807F892B2A
:101210008C9320C0A8E3B0E0E8E3F0E08081982F51
:101220008A81807F892B8C9315C0A5E3B0E0E5E32C
:10123000F0E08081982F8A81807F892B8C930AC06F
:10124000A2E3B0E0E2E3F0E08081982F8A81807F22
:10125000892B8C930F900F900F900F90CF91DF916F
:101260000895DF93CF9300D00F92CDB7DEB7898377
:101270008981282F30E03B832A838A819B818234B5
:101280009105F1F02A813B812334310534F48A81C0
:101290009B818134910561F02AC02A813B812334EE
:1012A0003105B1F08A819B8184349105C9F01FC05A
:1012B000ABE3B0E0EBE3F0E080818F708C9317C07C
:1012C000A8E3B0E0E8E3F0E080818F708C930FC07A
:1012D000A5E3B0E0E5E3F0E080818F708C9307C078
:1012E000A2E3B0E0E2E3F0E080818F708C930F9096
:1012F0000F900F90CF91DF910895DF93CF9300D09F
:1013000000D00F92CDB7DEB789836A834B83898182
:10131000282F30E03D832C838C819D818234910580
:1013200009F45EC02C813D812334310534F48C8175
:101330009D818134910571F024C12C813D8123343C
:10134000310509F493C08C819D818434910509F4A1
:10135000D3C017C18B81813071F5A0E5B0E0E0E525
:10136000F0E080818B7F8C93AAE3B0E0EAE3F0E0C9
:101370008081482F8A81282F30E081E090E002C0F0
:10138000880F991F2A95E2F7809584238C93ABE30D
:10139000B0E0EBE3F0E08081482F8A81282F30E035
:1013A00081E090E0022E02C0880F991F0A94E2F7B4
:1013B000842B8C93E6C0ABE3B0E0EBE3F0E08081FC
:1013C000482F8A81282F30E081E090E0022E02C071
:1013D000880F991F0A94E2F7809584238C93D1C0DB
:1013E0008B81813071F5A0E5B0E0E0E5F0E080812F
:1013F0008B7F8C93A7E3B0E0E7E3F0E08081482F98
:101400008A81282F30E081E090E002C0880F991F88
:101410002A95E2F7809584238C93A8E3B0E0E8E373
:10142000F0E08081482F8A81282F30E081E090E031
:10143000022E02C0880F991F0A94E2F7842B8C9326
:10144000A0C0A8E3B0E0E8E3F0E08081482F8A8103
:10145000282F30E081E090E0022E02C0880F991F13
:101460000A94E2F7809584238C938BC08B81813022
:1014700071F5A0E5B0E0E0E5F0E080818B7F8C9332
:10148000A4E3B0E0E4E3F0E08081482F8A81282FD4
:1014900030E081E090E002C0880F991F2A95E2F7C2
:1014A000809584238C93A5E3B0E0E5E3F0E08081B0
:1014B000482F8A81282F30E081E090E0022E02C080
:1014C000880F991F0A94E2F7842B8C935AC0A5E3E6
:1014D000B0E0E5E3F0E08081482F8A81282F30E0FA
:1014E00081E090E0022E02C0880F991F0A94E2F773
:1014F000809584238C9345C08B81813071F5A0E564
:10150000B0E0E0E5F0E080818B7F8C93A1E3B0E078
:10151000E1E3F0E08081482F8A81282F30E081E0EC
:1015200090E002C0880F991F2A95E2F780958423E6
:101530008C93A2E3B0E0E2E3F0E08081482F8A815F
:10154000282F30E081E090E0022E02C0880F991F22
:101550000A94E2F7842B8C9314C0A2E3B0E0E2E398
:10156000F0E08081482F8A81282F30E081E090E0F0
:10157000022E02C0880F991F0A94E2F780958423F7
:101580008C930F900F900F900F900F90CF91DF9151
:101590000895DF93CF93CDB7DEB7AFE5B0E0EFE5C9
:1015A000F0E0808180688C93CF91DF910895DF9384
:1015B000CF93CDB7DEB7AFE5B0E0EFE5F0E08081E7
:1015C0008F778C93CF91DF9108950F931F93DF93C3
:1015D000CF93CDB7DEB7C654D0400FB6F894DEBF78
:1015E0000FBECDBFFE01ED5BFF4F80E090E0A8E4B1
:1015F000B3E480839183A283B3838E01015C1F4F88
:10160000FE01ED5BFF4F608171818281938120E05B
:1016100030E04AEF54E40E941F02DC01CB01F801E4
:1016200080839183A283B383FE01FF9660817181E1
:101630008281938120E030E040E85FE30E947903FB
:1016400088232CF481E090E09EAF8DAF46C0FE0170
:10165000FF96608171818281938120E03FEF4FE7A7
:1016600057E40E941903181664F5FE01ED5BFF4F65
:10167000608171818281938120E030E040E251E419
:101680000E941F02DC01CB01BC01CD010E94490078
:10169000DC01CB019EAF8DAF0FC088EC90E09CAF1A
:1016A0008BAF8BAD9CAD0197F1F79CAF8BAF8DAD40
:1016B0009EAD01979EAF8DAF8DAD9EAD009769F742
:1016C00016C0FE01FF9660817181828193810E9424
:1016D0004900DC01CB019EAF8DAF8DAD9EAD9AAFC1
:1016E00089AF89AD9AAD0197F1F79AAF89AF81E4DF
:1016F00060E041E00E94A30581E461E041E00E94D6
:10170000A30581E462E041E00E94A30581E463E077
:1017100041E00E94A30581E464E041E00E94A3054A
:1017200081E465E041E00E94A30581E466E041E0D8
:101730000E94A30581E467E041E00E94A30582E4E2
:1017400060E041E00E94A30582E462E041E00E9483
:10175000A30582E461E041E00E94A30582E462E027
:1017600040E00E94870688E30E94940E80E090E0AB
:10177000A0E8BFE38DAB9EABAFABB8AF6DA97EA9C0
:101780008FA998AD20E030E04AEF54E40E941F0298
:10179000DC01CB0189AB9AABABABBCAB69A97AA935
:1017A0008BA99CA920E030E040E85FE30E94790328
:1017B00088232CF481E090E098AB8FA73FC069A903
:1017C0007AA98BA99CA920E03FEF4FE757E40E943C
:1017D000190318164CF56DA97EA98FA998AD20E0C4
:1017E00030E040E251E40E941F02DC01CB01BC0169
:1017F000CD010E944900DC01CB0198AB8FA70FC03F
:1018000088EC90E09EA78DA78DA59EA50197F1F786
:101810009EA78DA78FA598A9019798AB8FA78FA595
:1018200098A9009769F714C069A97AA98BA99CA9FE
:101830000E944900DC01CB0198AB8FA78FA598A926
:101840009CA78BA78BA59CA50197F1F79CA78BA7BD
:101850008EE00E94940E80E090E0A0E8BFE38FA3AA
:1018600098A7A9A7BAA76FA178A589A59AA520E0EE
:1018700030E04AEF54E40E941F02DC01CB018BA34D
:101880009CA3ADA3BEA36BA17CA18DA19EA120E0D2
:1018900030E040E85FE30E94790388232CF481E084
:1018A00090E09AA389A33FC06BA17CA18DA19EA1CA
:1018B00020E03FEF4FE757E40E94190318164CF55C
:1018C0006FA178A589A59AA520E030E040E251E417
:1018D0000E941F02DC01CB01BC01CD010E94490026
:1018E000DC01CB019AA389A30FC088EC90E098A3F8
:1018F0008F8F8F8D98A10197F1F798A38F8F89A172
:101900009AA101979AA389A389A19AA1009769F73F
:1019100014C06BA17CA18DA19EA10E944900DC0195
:10192000CB019AA389A389A19AA19E8F8D8F8D8DBA
:101930009E8D0197F1F79E8F8D8F81E00E94940E0E
:1019400080E090E0A0E2B1E4898F9A8FAB8FBC8FEA
:10195000698D7A8D8B8D9C8D20E030E04AEF54E4C8
:101960000E941F02DC01CB018D8B9E8BAF8BB88F49
:101970006D897E898F89988D20E030E040E85FE3B3
:101980000E94790388232CF481E090E09C8B8B8B60
:101990003FC06D897E898F89988D20E03FEF4FE7AA
:1019A00057E40E94190318164CF5698D7A8D8B8DBA
:1019B0009C8D20E030E040E251E40E941F02DC01F7
:1019C000CB01BC01CD010E944900DC01CB019C8B05
:1019D0008B8B0FC088EC90E09A8B898B89899A89D0
:1019E0000197F1F79A8B898B8B899C8901979C8B46
:1019F0008B8B8B899C89009769F714C06D897E89D0
:101A00008F89988D0E944900DC01CB019C8B8B8BC8
:101A10008B899C89988B8F878F8598890197F1F79F
:101A2000988B8F8786E00E94940E80E090E0A0E87B
:101A3000BFE38B879C87AD87BE876B857C858D8553
:101A40009E8520E030E04AEF54E40E941F02DC0152
:101A5000CB018F839887A987BA876F81788589851D
:101A60009A8520E030E040E85FE30E947903882314
:101A70002CF481E090E09E838D833FC06F81788558
:101A800089859A8520E03FEF4FE757E40E941903CC
:101A900018164CF56B857C858D859E8520E030E0A1
:101AA00040E251E40E941F02DC01CB01BC01CD01E8
:101AB0000E944900DC01CB019E838D830FC088EC1E
:101AC00090E09C838B838B819C810197F1F79C83B1
:101AD0008B838D819E8101979E838D838D819E81D5
:101AE000009769F714C06F81788589859A850E946F
:101AF0004900DC01CB019E838D838D819E819A8379
:101B0000898389819A810197F1F79A838983CA5BD6
:101B1000DF4F0FB6F894DEBF0FBECDBFCF91DF9180
:101B20001F910F910895DF93CF93CDB7DEB76C97D8
:101B30000FB6F894DEBF0FBECDBF82E460E041E097
:101B40000E94870680E090E0A0E0B0E4898F9A8F41
:101B5000AB8FBC8F698D7A8D8B8D9C8D20E030E0B2
:101B60004AEF54E40E941F02DC01CB018D8B9E8B57
:101B7000AF8BB88F6D897E898F89988D20E030E09A
:101B800040E85FE30E94790388232CF481E090E031
:101B90009C8B8B8B3FC06D897E898F89988D20E0CF
:101BA0003FEF4FE757E40E94190318164CF5698D73
:101BB0007A8D8B8D9C8D20E030E040E251E40E94D4
:101BC0001F02DC01CB01BC01CD010E944900DC01F8
:101BD000CB019C8B8B8B0FC088EC90E09A8B898B10
:101BE00089899A890197F1F79A8B898B8B899C89CE
:101BF00001979C8B8B8B8B899C89009769F714C00C
:101C00006D897E898F89988D0E944900DC01CB0106
:101C10009C8B8B8B8B899C89988B8F878F859889E0
:101C20000197F1F7988B8F8782E460E040E00E9493
:101C3000870680E090E0A0E0B0E48B879C87AD87CA
:101C4000BE876B857C858D859E8520E030E04AEFE0
:101C500054E40E941F02DC01CB018F839887A9877F
:101C6000BA876F81788589859A8520E030E040E8E1
:101C70005FE30E94790388232CF481E090E09E8347
:101C80008D833FC06F81788589859A8520E03FEFFD
:101C90004FE757E40E94190318164CF56B857C85B5
:101CA0008D859E8520E030E040E251E40E941F02D5
:101CB000DC01CB01BC01CD010E944900DC01CB015C
:101CC0009E838D830FC088EC90E09C838B838B81F7
:101CD0009C810197F1F79C838B838D819E81019775
:101CE0009E838D838D819E81009769F714C06F81DB
:101CF000788589859A850E944900DC01CB019E8305
:101D00008D838D819E819A83898389819A810197B0
:101D1000F1F79A8389836C960FB6F894DEBF0FBEF5
:101D2000CDBFCF91DF910895DF93CF93CDB7DEB7CD
:101D30002F970FB6F894DEBF0FBECDBF8F8781E41B
:101D40006F850E94950882E461E040E00E9487066A
:101D50000E94930D80E090E0A0E8BFE38B879C8712
:101D6000AD87BE876B857C858D859E8520E030E0C4
:101D70004AEF54E40E941F02DC01CB018F83988755
:101D8000A987BA876F81788589859A8520E030E0B8
:101D900040E85FE30E94790388232CF481E090E01F
:101DA0009E838D833FC06F81788589859A8520E0E9
:101DB0003FEF4FE757E40E94190318164CF56B8567
:101DC0007C858D859E8520E030E040E251E40E94D4
:101DD0001F02DC01CB01BC01CD010E944900DC01E6
:101DE000CB019E838D830FC088EC90E09C838B8316
:101DF0008B819C810197F1F79C838B838D819E81E0
:101E000001979E838D838D819E81009769F714C011
:101E10006F81788589859A850E944900DC01CB0114
:101E20009E838D838D819E819A83898389819A8106
:101E30000197F1F79A8389832F960FB6F894DEBF46
:101E40000FBECDBFCF91DF910895DF93CF93CDB774
:101E5000DEB72F970FB6F894DEBF0FBECDBF8F87CA
:101E600081E46F850E94950882E461E041E00E9470
:101E700087060E94930D80E090E0A0E8BFE38B8787
:101E80009C87AD87BE876B857C858D859E8520E090
:101E900030E04AEF54E40E941F02DC01CB018F8343
:101EA0009887A987BA876F81788589859A8520E088
:101EB00030E040E85FE30E94790388232CF481E05E
:101EC00090E09E838D833FC06F81788589859A8558
:101ED00020E03FEF4FE757E40E94190318164CF536
:101EE0006B857C858D859E8520E030E040E251E465
:101EF0000E941F02DC01CB01BC01CD010E94490000
:101F0000DC01CB019E838D830FC088EC90E09C8325
:101F10008B838B819C810197F1F79C838B838D81CF
:101F20009E8101979E838D838D819E81009769F7A5
:101F300014C06F81788589859A850E944900DC01EB
:101F4000CB019E838D838D819E819A838983898134
:101F50009A810197F1F79A8389832F960FB6F894A7
:101F6000DEBF0FBECDBFCF91DF910895DF93CF933A
:101F700000D0CDB7DEB79A8389830AC0E981FA81A0
:101F800080810E94250F89819A8101969A83898395
:101F9000E981FA818081882389F70F900F90CF9192
:101FA000DF910895DF93CF93CDB7DEB72E970FB6AD
:101FB000F894DEBF0FBECDBF81E00E94940E80E09A
:101FC00090E0A0E2B1E48B879C87AD87BE876B85EC
:101FD0007C858D859E8520E030E04AEF54E40E94A8
:101FE0001F02DC01CB018F839887A987BA876F8195
:101FF000788589859A8520E030E040E85FE30E949B
:10200000790388232CF481E090E09E838D833FC088
:102010006F81788589859A8520E03FEF4FE757E407
:102020000E94190318164CF56B857C858D859E855D
:1020300020E030E040E251E40E941F02DC01CB01CD
:10204000BC01CD010E944900DC01CB019E838D8340
:102050000FC088EC90E09C838B838B819C810197DF
:10206000F1F79C838B838D819E8101979E838D8365
:102070008D819E81009769F714C06F81788589856D
:102080009A850E944900DC01CB019E838D838D815E
:102090009E819A83898389819A810197F1F79A8336
:1020A00089832E960FB6F894DEBF0FBECDBFCF91B9
:1020B000DF910895DF93CF93CDB7DEB761970FB669
:1020C000F894DEBF0FBECDBF888B698B88898330C3
:1020D00048F48889882331F08989813118F4898905
:1020E000882319F480E88F870DC08889813021F416
:1020F000898981588F8706C08889823019F4898937
:1021000081548F878F850E94940E80E090E0A0E834
:10211000BFE38B879C87AD87BE876B857C858D856C
:102120009E8520E030E04AEF54E40E941F02DC016B
:10213000CB018F839887A987BA876F817885898536
:102140009A8520E030E040E85FE30E94790388232D
:102150002CF481E090E09E838D833FC06F81788571
:1021600089859A8520E03FEF4FE757E40E941903E5
:1021700018164CF56B857C858D859E8520E030E0BA
:1021800040E251E40E941F02DC01CB01BC01CD0101
:102190000E944900DC01CB019E838D830FC088EC37
:1021A00090E09C838B838B819C810197F1F79C83CA
:1021B0008B838D819E8101979E838D838D819E81EE
:1021C000009769F714C06F81788589859A850E9488
:1021D0004900DC01CB019E838D838D819E819A8392
:1021E000898389819A810197F1F79A83898361961E
:1021F0000FB6F894DEBF0FBECDBFCF91DF9108952B
:10220000DF93CF93CDB7DEB7A7E3B0E0E7E3F0E02D
:102210008081806B8C93ADE2B0E0EDE2F0E08081F4
:1022200081658C93CF91DF910895DF93CF93CDB7E4
:10223000DEB7A7E3B0E0E7E3F0E0808180648C9351
:10224000ADE2B0E0EDE2F0E0808180648C93CF916C
:10225000DF910895DF93CF930F92CDB7DEB78983D7
:10226000EFE2F0E089818083EEE2F0E08081881F78
:102270008827881F882F90E090700097A9F3EFE2DD
:10228000F0E080810F90CF91DF910895DF93CF939D
:10229000CDB7DEB7AFE4B0E0EFE4F0E080818E7F51
:1022A0008C93AFE4B0E0EFE4F0E0808182608C9347
:1022B000AEE4B0E0EEE4F0E0808188608C93AEE4C0
:1022C000B0E0EEE4F0E0808180618C93AFE4B0E0B8
:1022D000EFE4F0E080818F7B8C93AFE4B0E0EFE43B
:1022E000F0E0808180688C93AFE4B0E0EFE4F0E050
:1022F00080818F7E8C93AFE4B0E0EFE4F0E08081EA
:1023000080628C93AEE4B0E0EEE4F0E08081887F00
:102310008C93A9E5B0E0E9E5F0E080818B7F8C93B8
:10232000A9E5B0E0E9E5F0E08081877F8C93A9E53D
:10233000B0E0E9E5F0E080818F7E8C93A9E5B0E024
:10234000E9E5F0E080818F7D8C93A8E5B0E0E8E5D9
:10235000F0E0808184608C93A8E5B0E0E8E5F0E0EF
:10236000808188608C93A8E5B0E0E8E5F0E08081AA
:1023700080618C93A8E5B0E0E8E5F0E080818062C0
:102380008C93EAE4F0E01082EBE4F0E01082E8E401
:10239000F0E01082E9E4F0E01082ECE4F0E010827A
:1023A000EDE4F0E01082E6E4F0E01082E7E4F0E033
:1023B0001082CF91DF910895DF93CF930F92CDB725
:1023C000DEB78983AEE4B0E0EEE4F0E08081887FA0
:1023D0008C93AEE4B0E0EEE4F0E08081982F898148
:1023E0008770892B8C930F90CF91DF910895DF93A5
:1023F000CF93CDB7DEB7AEE4B0E0EEE4F0E080819D
:10240000887F8C93CF91DF910895DF93CF93CDB7E1
:10241000DEB7A9E5B0E0E9E5F0E0808184608C9367
:10242000CF91DF910895DF93CF93CDB7DEB7A9E5C4
:10243000B0E0E9E5F0E080818B7F8C93CF91DF9174
:102440000895DF93CF93CDB7DEB7A9E5B0E0E9E516
:10245000F0E0808180618C93CF91DF910895DF93CC
:10246000CF93CDB7DEB7A9E5B0E0E9E5F0E0808134
:102470008F7E8C93CF91DF910895DF93CF93CDB76B
:10248000DEB7A9E5B0E0E9E5F0E0808188608C93F3
:10249000CF91DF910895DF93CF93CDB7DEB7A9E554
:1024A000B0E0E9E5F0E08081877F8C93CF91DF9108
:1024B0000895DF93CF93CDB7DEB7A9E5B0E0E9E5A6
:1024C000F0E0808180628C93CF91DF910895DF935B
:1024D000CF93CDB7DEB7A9E5B0E0E9E5F0E08081C4
:1024E0008F7D8C93CF91DF910895DF93CF9300D0B0
:1024F000CDB7DEB79A83898389819A8190936101F0
:10250000809360010F900F90CF91DF910895DF933A
:10251000CF9300D0CDB7DEB79A83898389819A8122
:1025200090936301809362010F900F90CF91DF91A0
:102530000895DF93CF9300D0CDB7DEB79A83898318
:1025400089819A8190935D0180935C010F900F9037
:10255000CF91DF910895DF93CF9300D0CDB7DEB751
:102560009A83898389819A8190935F0180935E0128
:102570000F900F90CF91DF910895DF93CF9300D00C
:10258000CDB7DEB79A838983ECE4F0E0898180835C
:10259000EDE4F0E089819A81892F992780830F905B
:1025A0000F90CF91DF910895DF93CF9300D0CDB7F7
:1025B000DEB79A838983EAE4F0E089818083EBE4E3
:1025C000F0E089819A81892F992780830F900F905D
:1025D000CF91DF910895DF93CF9300D0CDB7DEB7D1
:1025E0009A838983E8E4F0E089818083E9E4F0E07C
:1025F00089819A81892F992780830F900F90CF919D
:10260000DF910895DF93CF9300D0CDB7DEB79A83E3
:102610008983E6E4F0E089819A81918380830F9039
:102620000F90CF91DF910895DF93CF9300D0CDB776
:10263000DEB7EDE4F0E08081882F90E09A83898313
:1026400089819A81982F88279A838983ECE4F0E026
:102650008081282F30E089819A81822B932B9A8365
:10266000898389819A810F900F90CF91DF9108958E
:102670001F920F920FB60F9211242F933F934F93F7
:102680005F936F937F938F939F93AF93BF93EF93DA
:10269000FF93DF93CF93CDB7DEB7E0916001F09168
:1026A00061010995CF91DF91FF91EF91BF91AF91BA
:1026B0009F918F917F916F915F914F913F912F915A
:1026C0000F900FBE0F901F9018951F920F920FB68C
:1026D0000F9211242F933F934F935F936F937F93A8
:1026E0008F939F93AF93BF93EF93FF93DF93CF931A
:1026F000CDB7DEB7E0916201F09163010995CF910A
:10270000DF91FF91EF91BF91AF919F918F917F9159
:102710006F915F914F913F912F910F900FBE0F904E
:102720001F9018951F920F920FB60F9211242F939E
:102730003F934F935F936F937F938F939F93AF9349
:10274000BF93EF93FF93DF93CF93CDB7DEB7E091C5
:102750005C01F0915D010995CF91DF91FF91EF91BF
:10276000BF91AF919F918F917F916F915F914F91A9
:102770003F912F910F900FBE0F901F9018951F92B1
:102780000F920FB60F9211242F933F934F935F93A5
:102790006F937F938F939F93AF93BF93EF93FF9329
:1027A000DF93CF93CDB7DEB7E0915E01F0915F018B
:1027B0000995CF91DF91FF91EF91BF91AF919F91DB
:1027C0008F917F916F915F914F913F912F910F90DA
:1027D0000FBE0F901F901895DF93CF93CDB7DEB744
:1027E000E6E4F0E080819181CF91DF910895DF935D
:1027F000CF93CDB7DEB7AEE4B0E0EEE4F0E0808199
:1028000080648C93CF91DF910895DF93CF93CDB700
:10281000DEB7AEE4B0E0EEE4F0E080818F7B8C9335
:10282000CF91DF910895DF93CF9300D000D000D0F7
:10283000CDB7DEB76B837C838D839E838B819C8138
:10284000AD81BE81880F991FAA1FBB1F880F991FDA
:10285000AA1FBB1F880F991FAA1FBB1F880F991F94
:10286000AA1FBB1F9C01AD0180E092E1AAE7B0E086
:10287000BC01CD010E947423DA01C90101979A833A
:102880008983E0E4F0E089819A81892F9927808308
:10289000E9E2F0E089818083AAE2B0E0EAE2F0E0D8
:1028A000808188608C93AAE2B0E0EAE2F0E0808167
:1028B00080618C93E0E4F0E086E8808326960FB692
:1028C000F894DEBF0FBECDBFCF91DF910895DF93A7
:1028D000CF930F92CDB7DEB78983EBE2F0E0808132
:1028E000882F90E080729070959587959595879543
:1028F000959587959595879595958795009769F313
:10290000ECE2F0E0898180830F90CF91DF91089510
:10291000DF93CF93CDB7DEB7EBE2F0E08081881F85
:102920008827881F882F90E090700097A9F3ECE229
:10293000F0E08081CF91DF910895DF93CF93CDB701
:10294000DEB760970FB6F894DEBF0FBECDBF988B91
:102950008F877CC0EF85F88980810E9467148F85FE
:1029600098890196988B8F8780E090E0A8ECB2E47C
:102970008B879C87AD87BE876B857C858D859E8583
:1029800020E030E04AEF54E40E941F02DC01CB015A
:102990008F839887A987BA876F81788589859A857B
:1029A00020E030E040E85FE30E94790388232CF4C4
:1029B00081E090E09E838D833FC06F81788589851B
:1029C0009A8520E03FEF4FE757E40E94190318165D
:1029D0004CF56B857C858D859E8520E030E040E25E
:1029E00051E40E941F02DC01CB01BC01CD010E9419
:1029F0004900DC01CB019E838D830FC088EC90E001
:102A00009C838B838B819C810197F1F79C838B83C3
:102A10008D819E8101979E838D838D819E810097FC
:102A200069F714C06F81788589859A850E9449006D
:102A3000DC01CB019E838D838D819E819A83898366
:102A400089819A810197F1F79A838983EF85F889C3
:102A50008081882309F07ECF60960FB6F894DEBFA0
:102A60000FBECDBFCF91DF9108950F931F93DF93DA
:102A7000CF93CDB7DEB7CA5FD0400FB6F894DEBFB4
:102A80000FBECDBF0E94461180E29EE40E94021359
:102A900082E00E94DC110E94001160E875E280E093
:102AA00090E00E9413140E94E50AFE01E951FF4FD5
:102AB0001082FE01E351FF4F81E38083FE01E35169
:102AC000FF4F82E38183FE01E351FF4F83E3828363
:102AD000FE01E351FF4F84E38383FE01EA51FF4F80
:102AE0001082FE01EC51FF4F11821082FE01ED5168
:102AF000FF4F1082FE01EE51FF4F108282E464E02E
:102B000041E00E94A30583E460E041E00E94A30548
:102B100083E461E041E00E94A30583E462E041E0D8
:102B20000E94A30583E463E041E00E94A305FE0147
:102B3000E951FF4F8081282F30E0C750DF4F3983A4
:102B40002883C95FD040C750DF4F88819981C95F12
:102B5000D0408230910509F4BDC5C750DF4FE881F0
:102B6000F981C95FD040E330F105A4F4C750DF4FCD
:102B700028813981C95FD0402115310561F1C750E5
:102B8000DF4F88819981C95FD0408130910509F478
:102B9000B2C1CDCFC750DF4FE881F981C95FD040C6
:102BA000E430F10511F40C94F01EC750DF4F28817A
:102BB0003981C95FD040243031050CF462C7C75059
:102BC000DF4F88819981C95FD0408530910511F42C
:102BD0000C94FE21ACCF81E061E00E945A1080E6A7
:102BE00090E00E94B60F82E061E00E945A1081E7F7
:102BF00090E00E94B60FFE01E352FF4F80E090E0AC
:102C0000AAE7B4E480839183A283B3838E01075241
:102C10001F4FFE01E352FF4F6081718182819381DA
:102C200020E030E04AEF54E40E941F02DC01CB01B7
:102C3000F80180839183A283B383FE01E752FF4FA3
:102C4000608171818281938120E030E040E85FE320
:102C50000E947903882344F4FE01E952FF4F81E08A
:102C600090E09183808364C0FE01E752FF4F608152
:102C700071818281938120E03FEF4FE757E40E940A
:102C8000190318160CF043C0FE01E352FF4F608198
:102C900071818281938120E030E040E251E40E9422
:102CA0001F02DC01CB018E0109521F4FBC01CD0177
:102CB0000E944900DC01CB01F801918380831FC091
:102CC000FE01EB52FF4F88EC90E091838083FE0180
:102CD000EB52FF4F808191810197F1F7FE01EB529A
:102CE000FF4F91838083DE01A952BF4FFE01E9525D
:102CF000FF4F80819181019711969C938E93FE01E5
:102D0000E952FF4F808191810097D1F627C08E0153
:102D100009521F4FFE01E752FF4F6081718182818E
:102D200093810E944900DC01CB01F80191838083EB
:102D3000DE01AD52BF4FFE01E952FF4F808191810C
:102D40008D939C93FE01ED52FF4F808191810197FD
:102D5000F1F7FE01ED52FF4F918380830E94D20F65
:102D600081E061E00E945A1081E890E00E94B60F75
:102D700082E061E00E945A108EE890E00E94B60F57
:102D8000FE01E153FF4F80E090E0AAE7B4E48083C6
:102D90009183A283B3838E0105531F4FFE01E1533C
:102DA000FF4F608171818281938120E030E04AEFA2
:102DB00054E40E941F02DC01CB01F801808391835F
:102DC000A283B383FE01E553FF4F6081718182814D
:102DD000938120E030E040E85FE30E94790388239C
:102DE00044F4FE01E753FF4F81E090E0918380833C
:102DF00064C0FE01E553FF4F608171818281938140
:102E000020E03FEF4FE757E40E94190318160CF03B
:102E100043C0FE01E153FF4F608171818281938144
:102E200020E030E040E251E40E941F02DC01CB01CF
:102E30008E0107531F4FBC01CD010E944900DC01E8
:102E4000CB01F801918380831FC0FE01E953FF4F3E
:102E500088EC90E091838083FE01E953FF4F8081ED
:102E600091810197F1F7FE01E953FF4F9183808330
:102E7000DE01A753BF4FFE01E753FF4F80819181D1
:102E8000019711969C938E93FE01E753FF4F80812B
:102E900091810097D1F627C08E0107531F4FFE0185
:102EA000E553FF4F60817181828193810E944900C7
:102EB000DC01CB01F80191838083DE01AB53BF4F6E
:102EC000FE01E753FF4F808191818D939C93FE011A
:102ED000EB53FF4F808191810197F1F7FE01EB5396
:102EE000FF4F918380830E94D20FFE01E951FF4F73
:102EF00081E080831CCE81E061E00E945A108AE963
:102F000090E00E94B60FFE01EF53FF4F80E090E883
:102F1000ABEBB4E480839183A283B3838E0103542B
:102F20001F4FFE01EF53FF4F6081718182819381BA
:102F300020E030E04AEF54E40E941F02DC01CB01A4
:102F4000F80180839183A283B383FE01E354FF4F92
:102F5000608171818281938120E030E040E85FE30D
:102F60000E947903882344F4FE01E554FF4F81E079
:102F700090E09183808364C0FE01E354FF4F608141
:102F800071818281938120E03FEF4FE757E40E94F7
:102F9000190318160CF043C0FE01EF53FF4F608178
:102FA00071818281938120E030E040E251E40E940F
:102FB0001F02DC01CB018E0105541F4FBC01CD0166
:102FC0000E944900DC01CB01F801918380831FC07E
:102FD000FE01E754FF4F88EC90E091838083FE016F
:102FE000E754FF4F808191810197F1F7FE01E7548B
:102FF000FF4F91838083DE01A554BF4FFE01E5544E
:10300000FF4F80819181019711969C938E93FE01D1
:10301000E554FF4F808191810097D1F627C08E0142
:1030200005541F4FFE01E354FF4F6081718182817F
:1030300093810E944900DC01CB01F80191838083D8
:10304000DE01A954BF4FFE01E554FF4F80819181FD
:103050008D939C93FE01E954FF4F808191810197EC
:10306000F1F7FE01E954FF4F918380830E94D20F54
:1030700081E061E00E945A1089EA90E00E94B60F58
:1030800082E061E00E945A1087EB90E00E94B60F48
:10309000FE01ED54FF4F80E090E8ABEBB4E4808399
:1030A0009183A283B3838E0101551F4FFE01ED541E
:1030B000FF4F608171818281938120E030E04AEF8F
:1030C00054E40E941F02DC01CB01F801808391834C
:1030D000A283B383FE01E155FF4F6081718182813C
:1030E000938120E030E040E85FE30E947903882389
:1030F00044F4FE01E355FF4F81E090E0918380832B
:1031000064C0FE01E155FF4F60817181828193812E
:1031100020E03FEF4FE757E40E94190318160CF028
:1031200043C0FE01ED54FF4F608171818281938124
:1031300020E030E040E251E40E941F02DC01CB01BC
:103140008E0103551F4FBC01CD010E944900DC01D7
:10315000CB01F801918380831FC0FE01E555FF4F2D
:1031600088EC90E091838083FE01E555FF4F8081DC
:1031700091810197F1F7FE01E555FF4F918380831F
:10318000DE01A355BF4FFE01E355FF4F80819181C2
:10319000019711969C938E93FE01E355FF4F80811A
:1031A00091810097D1F628C08E0103551F4FFE0173
:1031B000E155FF4F60817181828193810E944900B6
:1031C000DC01CB01F80191838083DE01A755BF4F5D
:1031D000FE01E355FF4F8081918111969C938E9360
:1031E000FE01E755FF4F808191810197F1F7FE01C4
:1031F000E755FF4F91838083FE01EF51FF4F10820F
:10320000FE01EF51FF4F1082A3C10E948814FE01FE
:10321000E851FF4F8083FE01EF51FF4F8081282F3F
:1032200030E0CE0187519F4FDC01A20FB31FFE019A
:10323000E851FF4F80818C93FE01EF51FF4F808159
:10324000982F955F82E0692F0E945A10FE01E85185
:10325000FF4F80810E94250FFE01EB55FF4F80E05C
:1032600090E0AAE7B3E480839183A283B3838E01C5
:103270000F551F4FFE01EB55FF4F60817181828119
:10328000938120E030E04AEF54E40E941F02DC0109
:10329000CB01F80180839183A283B383FE01EF55B4
:1032A000FF4F608171818281938120E030E040E8AE
:1032B0005FE30E947903882344F4FE01E156FF4F47
:1032C00081E090E09183808364C0FE01EF55FF4F61
:1032D000608171818281938120E03FEF4FE757E465
:1032E0000E94190318160CF043C0FE01EB55FF4F66
:1032F000608171818281938120E030E040E251E47D
:103300000E941F02DC01CB018E0101561F4FBC0140
:10331000CD010E944900DC01CB01F801918380833B
:103320001FC0FE01E356FF4F88EC90E0918380833D
:10333000FE01E356FF4F808191810197F1F7FE0175
:10334000E356FF4F91838083DE01A156BF4FFE01FC
:10335000E156FF4F80819181019711969C938E9346
:10336000FE01E156FF4F808191810097D1F627C081
:103370008E0101561F4FFE01EF55FF4F6081718195
:10338000828193810E944900DC01CB01F801918385
:103390008083DE01A556BF4FFE01E156FF4F8081BD
:1033A00091818D939C93FE01E556FF4F8081918121
:1033B0000197F1F7FE01E556FF4F91838083FE01EF
:1033C000EF51FF4F8081982F955F82E0692F0E9417
:1033D0005A1088E50E94250FFE01E956FF4F80E054
:1033E00090E0AAEFB3E480839183A283B3838E013C
:1033F0000D561F4FFE01E956FF4F6081718182819A
:10340000938120E030E04AEF54E40E941F02DC0187
:10341000CB01F80180839183A283B383FE01ED5633
:10342000FF4F608171818281938120E030E040E82C
:103430005FE30E947903882344F4FE01EF56FF4FB7
:1034400081E090E09183808364C0FE01ED56FF4FE0
:10345000608171818281938120E03FEF4FE757E4E3
:103460000E94190318160CF043C0FE01E956FF4FE5
:10347000608171818281938120E030E040E251E4FB
:103480000E941F02DC01CB018E010F561F4FBC01B1
:10349000CD010E944900DC01CB01F80191838083BA
:1034A0001FC0FE01E157FF4F88EC90E091838083BD
:1034B000FE01E157FF4F808191810197F1F7FE01F5
:1034C000E157FF4F91838083DE01AF56BF4FFE016E
:1034D000EF56FF4F80819181019711969C938E93B7
:1034E000FE01EF56FF4F808191810097D1F627C0F2
:1034F0008E010F561F4FFE01ED56FF4F6081718107
:10350000828193810E944900DC01CB01F801918303
:103510008083DE01A357BF4FFE01EF56FF4F80812E
:1035200091818D939C93FE01E357FF4F80819181A0
:103530000197F1F7FE01E357FF4F91838083DE018E
:10354000AF51BF4FFE01EF51FF4F80818F5F8C93D2
:10355000FE01EF51FF4F8081843008F456CEFE010A
:10356000E757FF4F80E090E0AAEFB3E480839183B8
:10357000A283B3838E010B571F4FFE01E757FF4F06
:10358000608171818281938120E030E04AEF54E4D0
:103590000E941F02DC01CB01F80180839183A2838A
:1035A000B383FE01EB57FF4F60817181828193816C
:1035B00020E030E040E85FE30E947903882344F490
:1035C000FE01ED57FF4F81E090E09183808364C05E
:1035D000FE01EB57FF4F608171818281938120E072
:1035E0003FEF4FE757E40E94190318160CF043C051
:1035F000FE01E757FF4F608171818281938120E056
:1036000030E040E251E40E941F02DC01CB018E0158
:103610000D571F4FBC01CD010E944900DC01CB01B9
:10362000F801918380831FC0FE01EF57FF4F88ECA4
:1036300090E091838083FE01EF57FF4F808191815D
:103640000197F1F7FE01EF57FF4F91838083DE0171
:10365000AD57BF4FFE01ED57FF4F8081918101971C
:1036600011969C938E93FE01ED57FF4F80819181BF
:103670000097D1F627C08E010D571F4FFE01EB5763
:10368000FF4F60817181828193810E944900DC013A
:10369000CB01F80191838083DE01A158BF4FFE0169
:1036A000ED57FF4F808191818D939C93FE01E158EE
:1036B000FF4F808191810197F1F7FE01E158FF4FA3
:1036C000918380830E94D20FFE01E951FF4F82E077
:1036D00080832DCA0E94D20FFE01EF51FF4F10824E
:1036E0002EC0FE01EF51FF4F8081282F30E0CE0128
:1036F00087519F4FFC01E20FF31F4081FE01EF5104
:10370000FF4F8081282F30E0CE0183519F4FFC0175
:10371000E20FF31F8081481749F0DE01AA51BF4F25
:10372000FE01EA51FF4F80818F5F8C93DE01AF5124
:10373000BF4FFE01EF51FF4F80818F5F8C93FE01E1
:10374000EF51FF4F8081843060F2FE01EA51FF4F5C
:103750008081882309F4CFC00E94D20F81E061E00C
:103760000E945A1082EC90E00E94B60F82E061E065
:103770000E945A1081ED90E00E94B60FFE01EA51BE
:10378000FF4F1082FE01E558FF4F80E090E0AAEF66
:10379000B3E480839183A283B3838E0109581F4FC2
:1037A000FE01E558FF4F608171818281938120E0A5
:1037B00030E04AEF54E40E941F02DC01CB01F80123
:1037C00080839183A283B383FE01E958FF4F608118
:1037D00071818281938120E030E040E85FE30E94C4
:1037E0007903882344F4FE01EB58FF4F81E090E019
:1037F0009183808364C0FE01E958FF4F608171812D
:103800008281938120E03FEF4FE757E40E94190344
:1038100018160CF043C0FE01E558FF4F608171811E
:103820008281938120E030E040E251E40E941F0257
:10383000DC01CB018E010B581F4FBC01CD010E9452
:103840004900DC01CB01F801918380831FC0FE0198
:10385000ED58FF4F88EC90E091838083FE01ED5896
:10386000FF4F808191810197F1F7FE01ED58FF4FE5
:1038700091838083DE01AB58BF4FFE01EB58FF4FB1
:1038800080819181019711969C938E93FE01EB5854
:10389000FF4F808191810097D1F628C08E010B588F
:1038A0001F4FFE01E958FF4F608171818281938132
:1038B0000E944900DC01CB01F80191838083DE0185
:1038C000AF58BF4FFE01EB58FF4F80819181119699
:1038D0009C938E93FE01EF58FF4F80819181019759
:1038E000F1F7FE01EF58FF4F91838083FE01E9510C
:1038F000FF4F10821CC90E94D20F81E061E00E943C
:103900005A1082EE90E00E94B60F0E945F22FE01E4
:10391000E359FF4F80E090E0AAEFB3E48083918306
:10392000A283B3838E0107591F4FFE01E359FF4F56
:10393000608171818281938120E030E04AEF54E41C
:103940000E941F02DC01CB01F80180839183A283D6
:10395000B383FE01E759FF4F6081718182819381BA
:1039600020E030E040E85FE30E947903882344F4DC
:10397000FE01E959FF4F81E090E09183808364C0AC
:10398000FE01E759FF4F608171818281938120E0C0
:103990003FEF4FE757E40E94190318160CF043C09D
:1039A000FE01E359FF4F608171818281938120E0A4
:1039B00030E040E251E40E941F02DC01CB018E01A5
:1039C00009591F4FBC01CD010E944900DC01CB0108
:1039D000F801918380831FC0FE01EB59FF4F88ECF3
:1039E00090E091838083FE01EB59FF4F80819181AC
:1039F0000197F1F7FE01EB59FF4F91838083DE01C0
:103A0000A959BF4FFE01E959FF4F8081918101976C
:103A100011969C938E93FE01E959FF4F808191810D
:103A20000097D1F628C08E0109591F4FFE01E759B2
:103A3000FF4F60817181828193810E944900DC0186
:103A4000CB01F80191838083DE01AD59BF4FFE01A8
:103A5000E959FF4F8081918111969C938E93FE01CD
:103A6000ED59FF4F808191810197F1F7FE01ED59EA
:103A7000FF4F91838083FE01E951FF4F83E08083F4
:103A800056C80E94D20F81E061E00E945A1083EF75
:103A900090E00E94B60F82E061E00E945A108EEF23
:103AA00090E00E94B60F0E948814FE01E851FF4F7B
:103AB0008083FE01E851FF4F8081282F30E0C950FC
:103AC000DF4F39832883C75FD040C950DF4F8881DB
:103AD0009981C75FD0408133910561F0C950DF4FB4
:103AE000E881F981C75FD040E233F10509F4BDC038
:103AF0000C949715FE01E15AFF4F80E090E0AAEF89
:103B0000B3E480839183A283B3838E01055A1F4F50
:103B1000FE01E15AFF4F608171818281938120E033
:103B200030E04AEF54E40E941F02DC01CB01F801AF
:103B300080839183A283B383FE01E55AFF4F6081A6
:103B400071818281938120E030E040E85FE30E9450
:103B50007903882344F4FE01E75AFF4F81E090E0A7
:103B60009183808364C0FE01E55AFF4F60817181BB
:103B70008281938120E03FEF4FE757E40E941903D1
:103B800018160CF043C0FE01E15AFF4F60817181AD
:103B90008281938120E030E040E251E40E941F02E4
:103BA000DC01CB018E01075A1F4FBC01CD010E94E1
:103BB0004900DC01CB01F801918380831FC0FE0125
:103BC000E95AFF4F88EC90E091838083FE01E95A27
:103BD000FF4F808191810197F1F7FE01E95AFF4F74
:103BE00091838083DE01A75ABF4FFE01E75AFF4F42
:103BF00080819181019711969C938E93FE01E75AE3
:103C0000FF4F808191810097D1F628C08E01075A1D
:103C10001F4FFE01E55AFF4F6081718182819381C0
:103C20000E944900DC01CB01F80191838083DE0111
:103C3000AB5ABF4FFE01E75AFF4F80819181119629
:103C40009C938E93FE01EB5AFF4F808191810197E7
:103C5000F1F7FE01EB5AFF4F91838083FE01E9519A
:103C6000FF4F84E080830C949715FE01EF5AFF4FBD
:103C700080E090E0AAEFB3E480839183A283B383D2
:103C80008E01035B1F4FFE01EF5AFF4F6081718170
:103C90008281938120E030E04AEF54E40E941F02C9
:103CA000DC01CB01F80180839183A283B383FE0101
:103CB000E35BFF4F608171818281938120E030E07E
:103CC00040E85FE30E947903882344F4FE01E55B4A
:103CD000FF4F81E090E09183808364C0FE01E35B4D
:103CE000FF4F608171818281938120E03FEF4FE738
:103CF00057E40E94190318160CF043C0FE01EF5A56
:103D0000FF4F608171818281938120E030E040E249
:103D100051E40E941F02DC01CB018E01055B1F4FA5
:103D2000BC01CD010E944900DC01CB01F801918367
:103D300080831FC0FE01E75BFF4F88EC90E091831A
:103D40008083FE01E75BFF4F808191810197F1F74E
:103D5000FE01E75BFF4F91838083DE01A55BBF4FD0
:103D6000FE01E55BFF4F80819181019711969C9345
:103D70008E93FE01E55BFF4F808191810097D1F624
:103D800028C08E01055B1F4FFE01E35BFF4F608182
:103D90007181828193810E944900DC01CB01F8018D
:103DA00091838083DE01A95BBF4FFE01E55BFF4F7E
:103DB0008081918111969C938E93FE01E95BFF4F68
:103DC000808191810197F1F7FE01E95BFF4F9183BB
:103DD0008083FE01E951FF4F85E080830C949715A5
:103DE000FE01EC51FF4F8BE091E0918380830E94B4
:103DF000D20F81E061E00E945A108EE091E00E94B3
:103E0000B60FFE01ED51FF4F8081882389F4FE013A
:103E1000EC51FF4F808191810E94B60FDE01AD51C0
:103E2000BF4FFE01ED51FF4F80818F5F8C9308C023
:103E300081E191E00E94B60FFE01ED51FF4F10822B
:103E400081E068E00E945A1084E191E00E94B60F80
:103E500082E464E00E946B07282F30E0CB50DF4FF4
:103E600039832883C55FD040CB50DF4F888199814B
:103E7000C55FD040009771F0CB50DF4FE881F981EA
:103E8000C55FD040E130F10549F488E191E00E943E
:103E9000B60F04C08EE191E00E94B60F82E061E0AF
:103EA0000E945A1085E291E00E94B60F81E063E023
:103EB0000E945A108BE091E00E94B60FFE01ED5B6C
:103EC000FF4F80E090E0AAEFB3E480839183A28368
:103ED000B3838E01015C1F4FFE01ED5BFF4F6081DC
:103EE00071818281938120E030E04AEF54E40E94A6
:103EF0001F02DC01CB01F80180839183A283B3838D
:103F0000FE01FF96608171818281938120E030E023
:103F100040E85FE30E94790388232CF481E090E07D
:103F20009EAF8DAF46C0FE01FF9660817181828198
:103F3000938120E03FEF4FE757E40E9419031816E2
:103F400064F5FE01ED5BFF4F608171818281938199
:103F500020E030E040E251E40E941F02DC01CB018E
:103F6000BC01CD010E944900DC01CB019EAF8DAFA9
:103F70000FC088EC90E09CAF8BAF8BAD9CAD0197F0
:103F8000F1F79CAF8BAF8DAD9EAD01979EAF8DAF1E
:103F90008DAD9EAD009769F716C0FE01FF9660815A
:103FA0007181828193810E944900DC01CB019EAF27
:103FB0008DAF8DAD9EAD9AAF89AF89AD9AAD0197AA
:103FC000F1F79AAF89AF81E063E00E945A108EE268
:103FD00091E00E94B60F80E090E0AAEFB3E48DABD1
:103FE0009EABAFABB8AF6DA97EA98FA998AD20E00D
:103FF00030E04AEF54E40E941F02DC01CB0189ABA0
:104000009AABABABBCAB69A97AA98BA99CA920E000
:1040100030E040E85FE30E94790388232CF481E0DC
:1040200090E098AB8FA73FC069A97AA98BA99CA9FA
:1040300020E03FEF4FE757E40E94190318164CF5B4
:104040006DA97EA98FA998AD20E030E040E251E44F
:104050000E941F02DC01CB01BC01CD010E9449007E
:10406000DC01CB0198AB8FA70FC088EC90E09EA736
:104070008DA78DA59EA50197F1F79EA78DA78FA56A
:1040800098A9019798AB8FA78FA598A9009769F772
:1040900014C069A97AA98BA99CA90E944900DC01D6
:1040A000CB0198AB8FA78FA598A99CA78BA78BA5B1
:1040B0009CA50197F1F79CA78BA781E063E00E9484
:1040C0005A1081E191E00E94B60F80E090E0AAEFE3
:1040D000B3E48FA398A7A9A7BAA76FA178A589A5CC
:1040E0009AA520E030E04AEF54E40E941F02DC0170
:1040F000CB018BA39CA3ADA3BEA36BA17CA18DA17F
:104100009EA120E030E040E85FE30E94790388232D
:104110002CF481E090E09AA389A33FC06BA17CA11D
:104120008DA19EA120E03FEF4FE757E40E941903C5
:1041300018164CF56FA178A589A59AA520E030E066
:1041400040E251E40E941F02DC01CB01BC01CD0121
:104150000E944900DC01CB019AA389A30FC088EC1F
:1041600090E098A38F8F8F8D98A10197F1F798A376
:104170008F8F89A19AA101979AA389A389A19AA156
:10418000009769F714C06BA17CA18DA19EA10E942C
:104190004900DC01CB019AA389A389A19AA19E8F32
:1041A0008D8F8D8D9E8D0197F1F79E8F8D8F81E084
:1041B00063E00E945A108EE291E00E94B60F80E008
:1041C00090E0AAEFB3E4898F9A8FAB8FBC8F698D93
:1041D0007A8D8B8D9C8D20E030E04AEF54E40E9474
:1041E0001F02DC01CB018D8B9E8BAF8BB88F6D894D
:1041F0007E898F89988D20E030E040E85FE30E945F
:10420000790388232CF481E090E09C8B8B8B3FC05A
:104210006D897E898F89988D20E03FEF4FE757E4C5
:104220000E94190318164CF5698D7A8D8B8D9C8D23
:1042300020E030E040E251E40E941F02DC01CB01AB
:10424000BC01CD010E944900DC01CB019C8B8B8B12
:104250000FC088EC90E09A8B898B89899A890197A5
:10426000F1F79A8B898B8B899C8901979C8B8B8B1F
:104270008B899C89009769F714C06D897E898F8925
:10428000988D0E944900DC01CB019C8B8B8B8B8924
:104290009C89988B8F878F8598890197F1F7988BE8
:1042A0008F8781E063E00E945A1081E391E00E94D1
:1042B000B60F80E090E0AAEFB3E48B879C87AD87D0
:1042C000BE876B857C858D859E8520E030E04AEF3A
:1042D00054E40E941F02DC01CB018F839887A987D9
:1042E000BA876F81788589859A8520E030E040E83B
:1042F0005FE30E94790388232CF481E090E09E83A1
:104300008D833FC06F81788589859A8520E03FEF56
:104310004FE757E40E94190318164CF56B857C850E
:104320008D859E8520E030E040E251E40E941F022E
:10433000DC01CB01BC01CD010E944900DC01CB01B5
:104340009E838D830FC088EC90E09C838B838B8150
:104350009C810197F1F79C838B838D819E810197CE
:104360009E838D838D819E81009769F714C06F8134
:10437000788589859A850E944900DC01CB019E835E
:104380008D838D819E819A83898389819A8101970A
:10439000F1F79A8389830E948814FE01E851FF4F48
:1043A0008083FE01E851FF4F8081282F30E0CD50FF
:1043B000DF4F39832883C35FD040CD50DF4F8881E2
:1043C0009981C35FD0408133910559F0CD50DF4FC3
:1043D000E881F981C35FD040E233F10549F00C94E4
:1043E0009715FE01E951FF4F83E080830C949715E8
:1043F00082E464E00E9417080C9497150E94D20F83
:1044000081E061E00E945A1084E391E00E94B60FBF
:10441000FE01EE51FF4F8081882371F48CE391E01F
:104420000E94B60FDE01AE51BF4FFE01EE51FF4FAD
:1044300080818F5F8C9308C080E491E00E94B60F6A
:10444000FE01EE51FF4F108282E061E00E945A109F
:1044500083E491E00E94B60F0E948814FE01E851A7
:10446000FF4F8083FE01E851FF4F8081282F30E00D
:10447000CF50DF4F39832883C15FD040CF50DF4F0B
:1044800088819981C15FD0408133910559F0CF5027
:10449000DF4FE881F981C15FD040E233F10549F097
:1044A0000C949715FE01E951FF4F83E080830C9433
:1044B000971583E462E00E9417080C949715DF9328
:1044C000CF93CDB7DEB76E970FB6F894DEBF0FBEB1
:1044D000CDBF8EEE92E09E8F8D8F80C08D8D9E8D94
:1044E0000E94D41280E090E0A0E2B1E4898F9A8F1C
:1044F000AB8FBC8F698D7A8D8B8D9C8D20E030E0E9
:104500004AEF54E40E941F02DC01CB018D8B9E8B8D
:10451000AF8BB88F6D897E898F89988D20E030E0D0
:1045200040E85FE30E94790388232CF481E090E067
:104530009C8B8B8B3FC06D897E898F89988D20E005
:104540003FEF4FE757E40E94190318164CF5698DA9
:104550007A8D8B8D9C8D20E030E040E251E40E940A
:104560001F02DC01CB01BC01CD010E944900DC012E
:10457000CB019C8B8B8B0FC088EC90E09A8B898B46
:1045800089899A890197F1F79A8B898B8B899C8904
:1045900001979C8B8B8B8B899C89009769F714C042
:1045A0006D897E898F89988D0E944900DC01CB013D
:1045B0009C8B8B8B8B899C89988B8F878F85988917
:1045C0000197F1F7988B8F878D8D9E8D05969E8F25
:1045D0008D8F8D8D9E8D01969E8F8D8F8D8D9E8D55
:1045E00025E08C3D920708F479CF80E090E0AAEFB7
:1045F000B3E48B879C87AD87BE876B857C858D8573
:104600009E8520E030E04AEF54E40E941F02DC0166
:10461000CB018F839887A987BA876F817885898531
:104620009A8520E030E040E85FE30E947903882328
:104630002CF481E090E09E838D833FC06F8178856C
:1046400089859A8520E03FEF4FE757E40E941903E0
:1046500018164CF56B857C858D859E8520E030E0B5
:1046600040E251E40E941F02DC01CB01BC01CD01FC
:104670000E944900DC01CB019E838D830FC088EC32
:1046800090E09C838B838B819C810197F1F79C83C5
:104690008B838D819E8101979E838D838D819E81E9
:1046A000009769F714C06F81788589859A850E9483
:1046B0004900DC01CB019E838D838D819E819A838D
:1046C000898389819A810197F1F79A8389838CED97
:1046D00095E00E94D4126E960FB6F894DEBF0FBE1E
:1046E000CDBFCF91DF910895A1E21A2EAA1BBB1B6B
:1046F000FD010DC0AA1FBB1FEE1FFF1FA217B307AE
:10470000E407F50720F0A21BB30BE40BF50B661FC3
:10471000771F881F991F1A9469F760957095809587
:1047200090959B01AC01BD01CF0108952F923F925E
:104730004F925F926F927F928F929F92AF92BF92B1
:10474000CF92DF92EF92FF920F931F93CF93DF935D
:10475000CDB7DEB7CA1BDB0B0FB6F894DEBF0FBEBA
:10476000CDBF09942A88398848885F846E847D8407
:104770008C849B84AA84B984C884DF80EE80FD8009
:104780000C811B81AA81B981CE0FD11D0FB6F8947F
:0E479000DEBF0FBECDBFED010895F894FFCF40
:10479E0057656C636F6C6520746F20536D61727416
:1047AE0000486F6D652070726F6A656374203A29D8
:1047BE0000596F7520617265206174203A00456E54
:1047CE0074657279204D6F6465004C6F67696E6712
:1047DE0020696E2E2E2E2E2E00506C656173652074
:1047EE00456E746572200050617373776F7264202A
:1047FE003A0057524F4E472050415353574F524451
:10480E0000506C656173652054727920416761694F
:10481E006E00434F52524543542050415353574F0D
:10482E00524400415F43203A2028312920004C6930
:10483E00676874203A202832292000323800543D0F
:10484E000033310041433A004F4E283229004F4683
:10485E0046283229004261636B3A283129003330F1
:10486E00003239005374617475733A004F46460036
:10487E004F4E004261636B3A28312920546F673ADC
:0C488E002832290000000000000000009B
:00000001FF
